{
  "_format": "hh-sol-artifact-1",
  "contractName": "AucEngine",
  "sourceName": "contracts/AucEngine.sol",
  "abi": [
    {
      "inputs": [],
      "stateMutability": "nonpayable",
      "type": "constructor"
    },
    {
      "anonymous": false,
      "inputs": [
        {
          "indexed": false,
          "internalType": "uint256",
          "name": "index",
          "type": "uint256"
        },
        {
          "indexed": false,
          "internalType": "string",
          "name": "itemName",
          "type": "string"
        },
        {
          "indexed": false,
          "internalType": "uint256",
          "name": "startingPrice",
          "type": "uint256"
        },
        {
          "indexed": false,
          "internalType": "uint256",
          "name": "duration",
          "type": "uint256"
        }
      ],
      "name": "AuctionCreated",
      "type": "event"
    },
    {
      "anonymous": false,
      "inputs": [
        {
          "indexed": false,
          "internalType": "uint256",
          "name": "index",
          "type": "uint256"
        },
        {
          "indexed": false,
          "internalType": "uint256",
          "name": "finalPrice",
          "type": "uint256"
        },
        {
          "indexed": false,
          "internalType": "address",
          "name": "winner",
          "type": "address"
        }
      ],
      "name": "AuctionEnded",
      "type": "event"
    },
    {
      "inputs": [
        {
          "internalType": "uint256",
          "name": "",
          "type": "uint256"
        }
      ],
      "name": "auctions",
      "outputs": [
        {
          "internalType": "address payable",
          "name": "seller",
          "type": "address"
        },
        {
          "internalType": "uint256",
          "name": "startingPrice",
          "type": "uint256"
        },
        {
          "internalType": "uint256",
          "name": "finalPrice",
          "type": "uint256"
        },
        {
          "internalType": "uint256",
          "name": "startAt",
          "type": "uint256"
        },
        {
          "internalType": "uint256",
          "name": "endsAt",
          "type": "uint256"
        },
        {
          "internalType": "uint256",
          "name": "discountRate",
          "type": "uint256"
        },
        {
          "internalType": "string",
          "name": "item",
          "type": "string"
        },
        {
          "internalType": "bool",
          "name": "stopped",
          "type": "bool"
        }
      ],
      "stateMutability": "view",
      "type": "function"
    },
    {
      "inputs": [
        {
          "internalType": "uint256",
          "name": "index",
          "type": "uint256"
        }
      ],
      "name": "buy",
      "outputs": [],
      "stateMutability": "payable",
      "type": "function"
    },
    {
      "inputs": [
        {
          "internalType": "uint256",
          "name": "_startingPrice",
          "type": "uint256"
        },
        {
          "internalType": "uint256",
          "name": "_discountRate",
          "type": "uint256"
        },
        {
          "internalType": "string",
          "name": "_item",
          "type": "string"
        },
        {
          "internalType": "uint256",
          "name": "_duration",
          "type": "uint256"
        }
      ],
      "name": "createAuction",
      "outputs": [],
      "stateMutability": "nonpayable",
      "type": "function"
    },
    {
      "inputs": [
        {
          "internalType": "uint256",
          "name": "indexAuc",
          "type": "uint256"
        }
      ],
      "name": "getDiscountRate",
      "outputs": [
        {
          "internalType": "uint256",
          "name": "",
          "type": "uint256"
        }
      ],
      "stateMutability": "view",
      "type": "function"
    },
    {
      "inputs": [
        {
          "internalType": "uint256",
          "name": "index",
          "type": "uint256"
        }
      ],
      "name": "getPriceFor",
      "outputs": [
        {
          "internalType": "uint256",
          "name": "",
          "type": "uint256"
        }
      ],
      "stateMutability": "view",
      "type": "function"
    },
    {
      "inputs": [
        {
          "internalType": "uint256",
          "name": "indexAuc",
          "type": "uint256"
        }
      ],
      "name": "getStartAt",
      "outputs": [
        {
          "internalType": "uint256",
          "name": "",
          "type": "uint256"
        }
      ],
      "stateMutability": "view",
      "type": "function"
    },
    {
      "inputs": [
        {
          "internalType": "uint256",
          "name": "indexAuc",
          "type": "uint256"
        }
      ],
      "name": "getStartingPrice",
      "outputs": [
        {
          "internalType": "uint256",
          "name": "",
          "type": "uint256"
        }
      ],
      "stateMutability": "view",
      "type": "function"
    },
    {
      "inputs": [
        {
          "internalType": "uint256",
          "name": "indexAuc",
          "type": "uint256"
        }
      ],
      "name": "getStopped",
      "outputs": [
        {
          "internalType": "bool",
          "name": "",
          "type": "bool"
        }
      ],
      "stateMutability": "view",
      "type": "function"
    },
    {
      "inputs": [],
      "name": "owner",
      "outputs": [
        {
          "internalType": "address",
          "name": "",
          "type": "address"
        }
      ],
      "stateMutability": "view",
      "type": "function"
    },
    {
      "inputs": [],
      "name": "withdrawAll",
      "outputs": [],
      "stateMutability": "nonpayable",
      "type": "function"
    }
  ],
  "bytecode": "0x60806040523480156200001157600080fd5b50336000806101000a81548173ffffffffffffffffffffffffffffffffffffffff021916908373ffffffffffffffffffffffffffffffffffffffff160217905550620000a7670de0b6b3a7640000620f42406040518060400160405280600381526020017f4e465400000000000000000000000000000000000000000000000000000000008152506064620000ad60201b60201c565b6200086b565b6000808214620000be5781620000c3565b6202a3005b90508084620000d39190620002ed565b85101562000118576040517f08c379a00000000000000000000000000000000000000000000000000000000081526004016200010f9062000399565b60405180910390fd5b60006040518061010001604052803373ffffffffffffffffffffffffffffffffffffffff1681526020018781526020018781526020014281526020018342620001629190620003bb565b8152602001868152602001858152602001600015158152509050600181908060018154018082558091505060019003906000526020600020906008020160009091909190915060008201518160000160006101000a81548173ffffffffffffffffffffffffffffffffffffffff021916908373ffffffffffffffffffffffffffffffffffffffff1602179055506020820151816001015560408201518160020155606082015181600301556080820151816004015560a0820151816005015560c082015181600601908162000238919062000666565b5060e08201518160070160006101000a81548160ff02191690831515021790555050507f5bf34ed94988e5dcdc7d1faaa54eb1d3b55f45d5f11457e235afb21a8ebbe73c600180805490506200028f91906200074d565b858885604051620002a4949392919062000817565b60405180910390a1505050505050565b6000819050919050565b7f4e487b7100000000000000000000000000000000000000000000000000000000600052601160045260246000fd5b6000620002fa82620002b4565b91506200030783620002b4565b92508282026200031781620002b4565b91508282048414831517620003315762000330620002be565b5b5092915050565b600082825260208201905092915050565b7f696e636f7272656374207374617274696e672070726963650000000000000000600082015250565b60006200038160188362000338565b91506200038e8262000349565b602082019050919050565b60006020820190508181036000830152620003b48162000372565b9050919050565b6000620003c882620002b4565b9150620003d583620002b4565b9250828201905080821115620003f057620003ef620002be565b5b92915050565b600081519050919050565b7f4e487b7100000000000000000000000000000000000000000000000000000000600052604160045260246000fd5b7f4e487b7100000000000000000000000000000000000000000000000000000000600052602260045260246000fd5b600060028204905060018216806200047857607f821691505b6020821081036200048e576200048d62000430565b5b50919050565b60008190508160005260206000209050919050565b60006020601f8301049050919050565b600082821b905092915050565b600060088302620004f87fffffffffffffffffffffffffffffffffffffffffffffffffffffffffffffffff82620004b9565b620005048683620004b9565b95508019841693508086168417925050509392505050565b6000819050919050565b600062000547620005416200053b84620002b4565b6200051c565b620002b4565b9050919050565b6000819050919050565b620005638362000526565b6200057b62000572826200054e565b848454620004c6565b825550505050565b600090565b6200059262000583565b6200059f81848462000558565b505050565b5b81811015620005c757620005bb60008262000588565b600181019050620005a5565b5050565b601f8211156200061657620005e08162000494565b620005eb84620004a9565b81016020851015620005fb578190505b620006136200060a85620004a9565b830182620005a4565b50505b505050565b600082821c905092915050565b60006200063b600019846008026200061b565b1980831691505092915050565b600062000656838362000628565b9150826002028217905092915050565b6200067182620003f6565b67ffffffffffffffff8111156200068d576200068c62000401565b5b6200069982546200045f565b620006a6828285620005cb565b600060209050601f831160018114620006de5760008415620006c9578287015190505b620006d5858262000648565b86555062000745565b601f198416620006ee8662000494565b60005b828110156200071857848901518255600182019150602085019450602081019050620006f1565b8683101562000738578489015162000734601f89168262000628565b8355505b6001600288020188555050505b505050505050565b60006200075a82620002b4565b91506200076783620002b4565b9250828203905081811115620007825762000781620002be565b5b92915050565b6200079381620002b4565b82525050565b60005b83811015620007b95780820151818401526020810190506200079c565b60008484015250505050565b6000601f19601f8301169050919050565b6000620007e382620003f6565b620007ef818562000338565b93506200080181856020860162000799565b6200080c81620007c5565b840191505092915050565b60006080820190506200082e600083018762000788565b8181036020830152620008428186620007d6565b905062000853604083018562000788565b62000862606083018462000788565b95945050505050565b611730806200087b6000396000f3fe6080604052600436106100915760003560e01c80638da5cb5b116100595780638da5cb5b146101a85780639e182a50146101d3578063d425293e14610210578063d96a094a1461024d578063e9835d151461026957610091565b80631b2a20f5146100965780634534cd9c146100d3578063571a26a014610110578063669e4e3a14610154578063853828b614610191575b600080fd5b3480156100a257600080fd5b506100bd60048036038101906100b89190610c18565b610292565b6040516100ca9190610c54565b60405180910390f35b3480156100df57600080fd5b506100fa60048036038101906100f59190610c18565b6102c1565b6040516101079190610c54565b60405180910390f35b34801561011c57600080fd5b5061013760048036038101906101329190610c18565b6104b0565b60405161014b989796959493929190610d5b565b60405180910390f35b34801561016057600080fd5b5061017b60048036038101906101769190610c18565b6105bd565b6040516101889190610de0565b60405180910390f35b34801561019d57600080fd5b506101a66105f9565b005b3480156101b457600080fd5b506101bd6106f0565b6040516101ca9190610e1c565b60405180910390f35b3480156101df57600080fd5b506101fa60048036038101906101f59190610c18565b610714565b6040516102079190610c54565b60405180910390f35b34801561021c57600080fd5b5061023760048036038101906102329190610c18565b610743565b6040516102449190610c54565b60405180910390f35b61026760048036038101906102629190610c18565b610772565b005b34801561027557600080fd5b50610290600480360381019061028b9190610f6c565b6109d6565b005b6000600182815481106102a8576102a7610fef565b5b9060005260206000209060080201600101549050919050565b600080600183815481106102d8576102d7610fef565b5b9060005260206000209060080201604051806101000160405290816000820160009054906101000a900473ffffffffffffffffffffffffffffffffffffffff1673ffffffffffffffffffffffffffffffffffffffff1673ffffffffffffffffffffffffffffffffffffffff168152602001600182015481526020016002820154815260200160038201548152602001600482015481526020016005820154815260200160068201805461038a9061104d565b80601f01602080910402602001604051908101604052809291908181526020018280546103b69061104d565b80156104035780601f106103d857610100808354040283529160200191610403565b820191906000526020600020905b8154815290600101906020018083116103e657829003601f168201915b505050505081526020016007820160009054906101000a900460ff16151515158152505090508060e001511561046e576040517f08c379a0000000000000000000000000000000000000000000000000000000008152600401610465906110ca565b60405180910390fd5b60008160600151426104809190611119565b90506000818360a00151610494919061114d565b90508083602001516104a69190611119565b9350505050919050565b600181815481106104c057600080fd5b90600052602060002090600802016000915090508060000160009054906101000a900473ffffffffffffffffffffffffffffffffffffffff16908060010154908060020154908060030154908060040154908060050154908060060180546105279061104d565b80601f01602080910402602001604051908101604052809291908181526020018280546105539061104d565b80156105a05780601f10610575576101008083540402835291602001916105a0565b820191906000526020600020905b81548152906001019060200180831161058357829003601f168201915b5050505050908060070160009054906101000a900460ff16905088565b6000600182815481106105d3576105d2610fef565b5b906000526020600020906008020160070160009054906101000a900460ff169050919050565b60008054906101000a900473ffffffffffffffffffffffffffffffffffffffff1673ffffffffffffffffffffffffffffffffffffffff163373ffffffffffffffffffffffffffffffffffffffff1614610687576040517f08c379a000000000000000000000000000000000000000000000000000000000815260040161067e90611201565b60405180910390fd5b60008054906101000a900473ffffffffffffffffffffffffffffffffffffffff1673ffffffffffffffffffffffffffffffffffffffff166108fc479081150290604051600060405180830381858888f193505050501580156106ed573d6000803e3d6000fd5b50565b60008054906101000a900473ffffffffffffffffffffffffffffffffffffffff1681565b60006001828154811061072a57610729610fef565b5b9060005260206000209060080201600501549050919050565b60006001828154811061075957610758610fef565b5b9060005260206000209060080201600301549050919050565b60006001828154811061078857610787610fef565b5b906000526020600020906008020190508060070160009054906101000a900460ff16156107ea576040517f08c379a00000000000000000000000000000000000000000000000000000000081526004016107e1906110ca565b60405180910390fd5b80600401544210610830576040517f08c379a00000000000000000000000000000000000000000000000000000000081526004016108279061126d565b60405180910390fd5b600061083b836102c1565b905080341015610880576040517f08c379a0000000000000000000000000000000000000000000000000000000008152600401610877906112d9565b60405180910390fd5b60018260070160006101000a81548160ff021916908315150217905550808260020181905550600081346108b49190611119565b90506000811115610907573373ffffffffffffffffffffffffffffffffffffffff166108fc829081150290604051600060405180830381858888f19350505050158015610905573d6000803e3d6000fd5b505b8260000160009054906101000a900473ffffffffffffffffffffffffffffffffffffffff1673ffffffffffffffffffffffffffffffffffffffff166108fc6064600585610954919061114d565b61095e9190611328565b846109699190611119565b9081150290604051600060405180830381858888f19350505050158015610994573d6000803e3d6000fd5b507fbafc4bda865d4d1f8d5b16f883e996fde0fe71112fac81503876d353756944008483336040516109c893929190611359565b60405180910390a150505050565b60008082146109e557816109ea565b6202a3005b905080846109f8919061114d565b851015610a3a576040517f08c379a0000000000000000000000000000000000000000000000000000000008152600401610a31906113dc565b60405180910390fd5b60006040518061010001604052803373ffffffffffffffffffffffffffffffffffffffff1681526020018781526020018781526020014281526020018342610a8291906113fc565b8152602001868152602001858152602001600015158152509050600181908060018154018082558091505060019003906000526020600020906008020160009091909190915060008201518160000160006101000a81548173ffffffffffffffffffffffffffffffffffffffff021916908373ffffffffffffffffffffffffffffffffffffffff1602179055506020820151816001015560408201518160020155606082015181600301556080820151816004015560a0820151816005015560c0820151816006019081610b5691906115dc565b5060e08201518160070160006101000a81548160ff02191690831515021790555050507f5bf34ed94988e5dcdc7d1faaa54eb1d3b55f45d5f11457e235afb21a8ebbe73c60018080549050610bab9190611119565b858885604051610bbe94939291906116ae565b60405180910390a1505050505050565b6000604051905090565b600080fd5b600080fd5b6000819050919050565b610bf581610be2565b8114610c0057600080fd5b50565b600081359050610c1281610bec565b92915050565b600060208284031215610c2e57610c2d610bd8565b5b6000610c3c84828501610c03565b91505092915050565b610c4e81610be2565b82525050565b6000602082019050610c696000830184610c45565b92915050565b600073ffffffffffffffffffffffffffffffffffffffff82169050919050565b6000610c9a82610c6f565b9050919050565b610caa81610c8f565b82525050565b600081519050919050565b600082825260208201905092915050565b60005b83811015610cea578082015181840152602081019050610ccf565b60008484015250505050565b6000601f19601f8301169050919050565b6000610d1282610cb0565b610d1c8185610cbb565b9350610d2c818560208601610ccc565b610d3581610cf6565b840191505092915050565b60008115159050919050565b610d5581610d40565b82525050565b600061010082019050610d71600083018b610ca1565b610d7e602083018a610c45565b610d8b6040830189610c45565b610d986060830188610c45565b610da56080830187610c45565b610db260a0830186610c45565b81810360c0830152610dc48185610d07565b9050610dd360e0830184610d4c565b9998505050505050505050565b6000602082019050610df56000830184610d4c565b92915050565b6000610e0682610c6f565b9050919050565b610e1681610dfb565b82525050565b6000602082019050610e316000830184610e0d565b92915050565b600080fd5b600080fd5b7f4e487b7100000000000000000000000000000000000000000000000000000000600052604160045260246000fd5b610e7982610cf6565b810181811067ffffffffffffffff82111715610e9857610e97610e41565b5b80604052505050565b6000610eab610bce565b9050610eb78282610e70565b919050565b600067ffffffffffffffff821115610ed757610ed6610e41565b5b610ee082610cf6565b9050602081019050919050565b82818337600083830152505050565b6000610f0f610f0a84610ebc565b610ea1565b905082815260208101848484011115610f2b57610f2a610e3c565b5b610f36848285610eed565b509392505050565b600082601f830112610f5357610f52610e37565b5b8135610f63848260208601610efc565b91505092915050565b60008060008060808587031215610f8657610f85610bd8565b5b6000610f9487828801610c03565b9450506020610fa587828801610c03565b935050604085013567ffffffffffffffff811115610fc657610fc5610bdd565b5b610fd287828801610f3e565b9250506060610fe387828801610c03565b91505092959194509250565b7f4e487b7100000000000000000000000000000000000000000000000000000000600052603260045260246000fd5b7f4e487b7100000000000000000000000000000000000000000000000000000000600052602260045260246000fd5b6000600282049050600182168061106557607f821691505b6020821081036110785761107761101e565b5b50919050565b7f73746f7070656421000000000000000000000000000000000000000000000000600082015250565b60006110b4600883610cbb565b91506110bf8261107e565b602082019050919050565b600060208201905081810360008301526110e3816110a7565b9050919050565b7f4e487b7100000000000000000000000000000000000000000000000000000000600052601160045260246000fd5b600061112482610be2565b915061112f83610be2565b9250828203905081811115611147576111466110ea565b5b92915050565b600061115882610be2565b915061116383610be2565b925082820261117181610be2565b91508282048414831517611188576111876110ea565b5b5092915050565b7f796f7520617265206e6f7420746865206f776e6572206f662074686520636f6e60008201527f7472616374210000000000000000000000000000000000000000000000000000602082015250565b60006111eb602683610cbb565b91506111f68261118f565b604082019050919050565b6000602082019050818103600083015261121a816111de565b9050919050565b7f656e646564000000000000000000000000000000000000000000000000000000600082015250565b6000611257600583610cbb565b915061126282611221565b602082019050919050565b600060208201905081810360008301526112868161124a565b9050919050565b7f6e6f7420656e6f7567682066756e647321200000000000000000000000000000600082015250565b60006112c3601283610cbb565b91506112ce8261128d565b602082019050919050565b600060208201905081810360008301526112f2816112b6565b9050919050565b7f4e487b7100000000000000000000000000000000000000000000000000000000600052601260045260246000fd5b600061133382610be2565b915061133e83610be2565b92508261134e5761134d6112f9565b5b828204905092915050565b600060608201905061136e6000830186610c45565b61137b6020830185610c45565b6113886040830184610e0d565b949350505050565b7f696e636f7272656374207374617274696e672070726963650000000000000000600082015250565b60006113c6601883610cbb565b91506113d182611390565b602082019050919050565b600060208201905081810360008301526113f5816113b9565b9050919050565b600061140782610be2565b915061141283610be2565b925082820190508082111561142a576114296110ea565b5b92915050565b60008190508160005260206000209050919050565b60006020601f8301049050919050565b600082821b905092915050565b6000600883026114927fffffffffffffffffffffffffffffffffffffffffffffffffffffffffffffffff82611455565b61149c8683611455565b95508019841693508086168417925050509392505050565b6000819050919050565b60006114d96114d46114cf84610be2565b6114b4565b610be2565b9050919050565b6000819050919050565b6114f3836114be565b6115076114ff826114e0565b848454611462565b825550505050565b600090565b61151c61150f565b6115278184846114ea565b505050565b5b8181101561154b57611540600082611514565b60018101905061152d565b5050565b601f8211156115905761156181611430565b61156a84611445565b81016020851015611579578190505b61158d61158585611445565b83018261152c565b50505b505050565b600082821c905092915050565b60006115b360001984600802611595565b1980831691505092915050565b60006115cc83836115a2565b9150826002028217905092915050565b6115e582610cb0565b67ffffffffffffffff8111156115fe576115fd610e41565b5b611608825461104d565b61161382828561154f565b600060209050601f8311600181146116465760008415611634578287015190505b61163e85826115c0565b8655506116a6565b601f19841661165486611430565b60005b8281101561167c57848901518255600182019150602085019450602081019050611657565b868310156116995784890151611695601f8916826115a2565b8355505b6001600288020188555050505b505050505050565b60006080820190506116c36000830187610c45565b81810360208301526116d58186610d07565b90506116e46040830185610c45565b6116f16060830184610c45565b9594505050505056fea2646970667358221220501dc09eb4ac5135107840af58f9ae5e65ee5b6480ae41875ec7ef4adf34a63d64736f6c63430008120033",
  "linkReferences": {},
  "deployedLinkReferences": {}
}